{
  "contractName": "TrustMapping",
  "abi": [
    {
      "constant": true,
      "inputs": [
        {
          "name": "trustBalance",
          "type": "uint256"
        }
      ],
      "name": "getLevel",
      "outputs": [
        {
          "name": "trustLevel",
          "type": "uint256"
        }
      ],
      "payable": false,
      "stateMutability": "pure",
      "type": "function"
    }
  ],
  "bytecode": "0x6060604052341561000f57600080fd5b61010a8061001e6000396000f300606060405260043610603f576000357c0100000000000000000000000000000000000000000000000000000000900463ffffffff16806386481d40146044575b600080fd5b60586004808035906020019091905050606e565b6040518082815260200191505060405180910390f35b6000600a8210156080576000905060d9565b600a821015801560905750601482105b15609c576001905060d9565b6014821015801560ac5750601e82105b1560b8576002905060d9565b601e821015801560c85750602882105b1560d4576003905060d9565b600490505b9190505600a165627a7a723058202e30d5578533564170a6f013b1141db9092a40502996d6b31c2d1ac98d371c7d0029",
  "source": "pragma solidity ^0.4.17;\n\nlibrary TrustMapping{\n\n\tfunction getLevel(uint trustBalance) public pure returns (uint trustLevel){\n\t\tif(trustBalance < 10){\n      return 0;\n    }\n\t\telse if(trustBalance >=10 && trustBalance<20){\n\t\t\treturn 1;\n\t\t}\n\t\telse if(trustBalance >=20 && trustBalance<30){\n\t\t\treturn 2;\n\t\t}\n\t\telse if(trustBalance >=30 && trustBalance<40){\n\t\t\treturn 3;\n\t\t}\n    else{\n      return 4;\n    }\n\t}\n\n}\n",
  "sourcePath": "/Users/swordfish/Documents/selfStudy/TrustCoin/contracts/TrustMapping.sol",
  "compiler": {
    "name": "solc",
    "version": "0.4.19+commit.c4cbbb05.Emscripten.clang"
  },
  "schemaVersion": "1.0.1",
  "updatedAt": "2018-04-09T18:15:09.434Z"
}